{
  "contractName": "NotarizeTx",
  "abi": [
    {
      "constant": true,
      "inputs": [
        {
          "name": "",
          "type": "bytes4"
        }
      ],
      "name": "idToTx",
      "outputs": [
        {
          "name": "buyer",
          "type": "address"
        },
        {
          "name": "seller",
          "type": "address"
        },
        {
          "name": "id",
          "type": "bytes4"
        },
        {
          "name": "date",
          "type": "uint256"
        },
        {
          "name": "value",
          "type": "uint256"
        },
        {
          "name": "key",
          "type": "bytes32"
        },
        {
          "name": "status",
          "type": "uint8"
        }
      ],
      "payable": false,
      "stateMutability": "view",
      "type": "function"
    },
    {
      "inputs": [],
      "payable": false,
      "stateMutability": "nonpayable",
      "type": "constructor"
    },
    {
      "anonymous": false,
      "inputs": [
        {
          "indexed": false,
          "name": "key",
          "type": "bytes32"
        }
      ],
      "name": "newTxEvent",
      "type": "event"
    },
    {
      "anonymous": false,
      "inputs": [
        {
          "indexed": false,
          "name": "key",
          "type": "bytes32"
        }
      ],
      "name": "updateStatusEvent",
      "type": "event"
    },
    {
      "anonymous": false,
      "inputs": [
        {
          "indexed": false,
          "name": "operator",
          "type": "address"
        }
      ],
      "name": "initializeOperatorEvent",
      "type": "event"
    },
    {
      "constant": false,
      "inputs": [
        {
          "name": "_buyer",
          "type": "address"
        },
        {
          "name": "_seller",
          "type": "address"
        },
        {
          "name": "_id",
          "type": "bytes4"
        },
        {
          "name": "_date",
          "type": "uint256"
        },
        {
          "name": "_value",
          "type": "uint256"
        },
        {
          "name": "_key",
          "type": "bytes32"
        }
      ],
      "name": "newTx",
      "outputs": [],
      "payable": false,
      "stateMutability": "nonpayable",
      "type": "function"
    },
    {
      "constant": false,
      "inputs": [
        {
          "name": "_status",
          "type": "uint8"
        },
        {
          "name": "_id",
          "type": "bytes4"
        }
      ],
      "name": "updateStatus",
      "outputs": [],
      "payable": false,
      "stateMutability": "nonpayable",
      "type": "function"
    },
    {
      "constant": false,
      "inputs": [
        {
          "name": "_operator",
          "type": "address"
        }
      ],
      "name": "initializeOperator",
      "outputs": [],
      "payable": false,
      "stateMutability": "nonpayable",
      "type": "function"
    }
  ],
  "bytecode": "0x60806040526000600160146101000a81548160ff02191690831515021790555034801561002b57600080fd5b50336000806101000a81548173ffffffffffffffffffffffffffffffffffffffff021916908373ffffffffffffffffffffffffffffffffffffffff16021790555061095e8061007b6000396000f300608060405260043610610062576000357c0100000000000000000000000000000000000000000000000000000000900463ffffffff16806333938edc1461006757806337df6b3e146100aa578063607f6c6314610103578063f8dfefab14610239575b600080fd5b34801561007357600080fd5b506100a8600480360381019080803573ffffffffffffffffffffffffffffffffffffffff1690602001909291905050506102e7565b005b3480156100b657600080fd5b50610101600480360381019080803560ff16906020019092919080357bffffffffffffffffffffffffffffffffffffffffffffffffffffffff19169060200190929190505050610425565b005b34801561010f57600080fd5b5061014d60048036038101908080357bffffffffffffffffffffffffffffffffffffffffffffffffffffffff19169060200190929190505050610603565b604051808873ffffffffffffffffffffffffffffffffffffffff1673ffffffffffffffffffffffffffffffffffffffff1681526020018773ffffffffffffffffffffffffffffffffffffffff1673ffffffffffffffffffffffffffffffffffffffff168152602001867bffffffffffffffffffffffffffffffffffffffffffffffffffffffff19167bffffffffffffffffffffffffffffffffffffffffffffffffffffffff19168152602001858152602001848152602001836000191660001916815260200182600481111561021f57fe5b60ff16815260200197505050505050505060405180910390f35b34801561024557600080fd5b506102e5600480360381019080803573ffffffffffffffffffffffffffffffffffffffff169060200190929190803573ffffffffffffffffffffffffffffffffffffffff16906020019092919080357bffffffffffffffffffffffffffffffffffffffffffffffffffffffff19169060200190929190803590602001909291908035906020019092919080356000191690602001909291905050506106bb565b005b6000809054906101000a900473ffffffffffffffffffffffffffffffffffffffff1673ffffffffffffffffffffffffffffffffffffffff163373ffffffffffffffffffffffffffffffffffffffff1614151561034257600080fd5b80600160006101000a81548173ffffffffffffffffffffffffffffffffffffffff021916908373ffffffffffffffffffffffffffffffffffffffff16021790555060018060146101000a81548160ff0219169083151502179055507f48de742150c4998648db31a29e3674cd53cf458a9f7cb7c5bc9892a8eceaa548600160009054906101000a900473ffffffffffffffffffffffffffffffffffffffff16604051808273ffffffffffffffffffffffffffffffffffffffff1673ffffffffffffffffffffffffffffffffffffffff16815260200191505060405180910390a150565b6000809054906101000a900473ffffffffffffffffffffffffffffffffffffffff1673ffffffffffffffffffffffffffffffffffffffff163373ffffffffffffffffffffffffffffffffffffffff1614806104ec5750600160009054906101000a900473ffffffffffffffffffffffffffffffffffffffff1673ffffffffffffffffffffffffffffffffffffffff163373ffffffffffffffffffffffffffffffffffffffff161480156104eb575060011515600160149054906101000a900460ff161515145b5b15156104f757600080fd5b8160026000837bffffffffffffffffffffffffffffffffffffffffffffffffffffffff19167bffffffffffffffffffffffffffffffffffffffffffffffffffffffff1916815260200190815260200160002060050160006101000a81548160ff0219169083600481111561056757fe5b02179055507fcd9b74228ff867e95ddbe0683b37ed5111014775ccd9be8efe1e4f60153b7dcf60026000837bffffffffffffffffffffffffffffffffffffffffffffffffffffffff19167bffffffffffffffffffffffffffffffffffffffffffffffffffffffff191681526020019081526020016000206004015460405180826000191660001916815260200191505060405180910390a15050565b60026020528060005260406000206000915090508060000160009054906101000a900473ffffffffffffffffffffffffffffffffffffffff16908060010160009054906101000a900473ffffffffffffffffffffffffffffffffffffffff16908060010160149054906101000a90047c010000000000000000000000000000000000000000000000000000000002908060020154908060030154908060040154908060050160009054906101000a900460ff16905087565b60008060009054906101000a900473ffffffffffffffffffffffffffffffffffffffff1673ffffffffffffffffffffffffffffffffffffffff163373ffffffffffffffffffffffffffffffffffffffff1614806107845750600160009054906101000a900473ffffffffffffffffffffffffffffffffffffffff1673ffffffffffffffffffffffffffffffffffffffff163373ffffffffffffffffffffffffffffffffffffffff16148015610783575060011515600160149054906101000a900460ff161515145b5b151561078f57600080fd5b60026000867bffffffffffffffffffffffffffffffffffffffffffffffffffffffff19167bffffffffffffffffffffffffffffffffffffffffffffffffffffffff191681526020019081526020016000209050868160000160006101000a81548173ffffffffffffffffffffffffffffffffffffffff021916908373ffffffffffffffffffffffffffffffffffffffff160217905550858160010160006101000a81548173ffffffffffffffffffffffffffffffffffffffff021916908373ffffffffffffffffffffffffffffffffffffffff160217905550848160010160146101000a81548163ffffffff02191690837c0100000000000000000000000000000000000000000000000000000000900402179055508381600201819055508281600301819055508181600401816000191690555060008160050160006101000a81548160ff021916908360048111156108e557fe5b02179055507f79e3783417f4dca9b67a868e07ea44081d7ec8599bd6cdc5d3bf9204d08b0c338260405180826000191660001916815260200191505060405180910390a1505050505050505600a165627a7a72305820f22438e5f60ad3b7d48b73a17df03b9bc07c70c5aee4b333be8dab8f39a2ded10029",
  "source": "/*\n Bitsign transaction notarizacion contract v0.1c\n*/\npragma solidity ^0.4.23;\n\ncontract NotarizeTx {\n    address owner;\n    address operator;\n    bool operatorInstantiated = false;\n    constructor() public {\n      owner = msg.sender;\n    }\n\n    enum Status {purchased, confirmed, shiped, recieved, completed}\n    modifier onlyOwner() {\n      require(msg.sender == owner);\n      _;\n    }\n    modifier onlyOwnerOrOperator() {\n      require(msg.sender == owner || (msg.sender == operator && operatorInstantiated == true));\n      _;\n    }\n\n    struct Tx {\n        address  buyer;\n        address  seller;\n        bytes4  id;\n        uint256 date;\n        uint  value;\n        bytes32  key;\n        Status  status;\n    }\n    /*  mapping id's => Transactions*/\n    mapping (bytes4 => Tx) public idToTx;\n    event newTxEvent(bytes32  key);\n    function newTx(address _buyer, address _seller, bytes4 _id, uint256 _date,\n    uint _value, bytes32 _key) public onlyOwnerOrOperator {\n        Tx storage _tx = idToTx[_id];\n        _tx.buyer = _buyer;\n        _tx.seller = _seller;\n        _tx.id = _id;\n        _tx.date = _date;\n        _tx.value = _value;\n        _tx.key = _key;\n        _tx.status = Status.purchased;\n        emit newTxEvent(_key);\n    }\n\n  /* Event trigered when status is updated */\n    event updateStatusEvent(bytes32  key);\n    /* updateStatus fcn, allows to change status of tx given id */\n    function updateStatus(Status _status, bytes4 _id) public onlyOwnerOrOperator{\n        idToTx[_id].status = _status;\n        emit updateStatusEvent(idToTx[_id].key);\n    }\n    event initializeOperatorEvent(address operator);\n    function initializeOperator(address _operator ) public onlyOwner{\n      operator = _operator;\n      operatorInstantiated = true;\n      emit initializeOperatorEvent(operator);\n    }\n}\n",
  "sourcePath": "/home/castor/Documentos/blockchainPruebas/notary/truffle-test-boilerplate/contracts/NotarizeTx.sol",
  "compiler": {
    "name": "solc",
    "version": "0.4.23+commit.124ca40d.Emscripten.clang"
  },
  "schemaVersion": "2.0.0",
  "updatedAt": "2018-06-06T17:53:19.446Z"
}